{
  "_format": "hh-sol-artifact-1",
  "contractName": "DonatePlatform",
  "sourceName": "contracts/DonatePlatform.sol",
  "abi": [
    {
      "inputs": [],
      "stateMutability": "nonpayable",
      "type": "constructor"
    },
    {
      "anonymous": false,
      "inputs": [
        {
          "indexed": true,
          "internalType": "address",
          "name": "from",
          "type": "address"
        },
        {
          "indexed": false,
          "internalType": "string",
          "name": "name",
          "type": "string"
        },
        {
          "indexed": false,
          "internalType": "string",
          "name": "message",
          "type": "string"
        },
        {
          "indexed": false,
          "internalType": "uint256",
          "name": "timestamp",
          "type": "uint256"
        }
      ],
      "name": "NewDonation",
      "type": "event"
    },
    {
      "inputs": [
        {
          "internalType": "string",
          "name": "_name",
          "type": "string"
        },
        {
          "internalType": "string",
          "name": "_message",
          "type": "string"
        }
      ],
      "name": "donateETH",
      "outputs": [],
      "stateMutability": "payable",
      "type": "function"
    },
    {
      "inputs": [],
      "name": "getDonations",
      "outputs": [
        {
          "components": [
            {
              "internalType": "address",
              "name": "from",
              "type": "address"
            },
            {
              "internalType": "string",
              "name": "name",
              "type": "string"
            },
            {
              "internalType": "string",
              "name": "message",
              "type": "string"
            },
            {
              "internalType": "uint256",
              "name": "timestamp",
              "type": "uint256"
            }
          ],
          "internalType": "struct DonatePlatform.Donation[]",
          "name": "",
          "type": "tuple[]"
        }
      ],
      "stateMutability": "view",
      "type": "function"
    },
    {
      "inputs": [],
      "name": "withdrawDonations",
      "outputs": [],
      "stateMutability": "nonpayable",
      "type": "function"
    }
  ],
  "bytecode": "0x608060405234801561001057600080fd5b50336000806101000a81548173ffffffffffffffffffffffffffffffffffffffff021916908373ffffffffffffffffffffffffffffffffffffffff160217905550610b70806100606000396000f3fe6080604052600436106100345760003560e01c8063562147e914610039578063ce1b088a14610055578063e25f84161461006c575b600080fd5b610053600480360381019061004e9190610695565b610097565b005b34801561006157600080fd5b5061006a61021f565b005b34801561007857600080fd5b506100816102b5565b60405161008e919061091b565b60405180910390f35b600034116100da576040517f08c379a00000000000000000000000000000000000000000000000000000000081526004016100d1906109c0565b60405180910390fd5b600160405180608001604052803373ffffffffffffffffffffffffffffffffffffffff16815260200184815260200183815260200142815250908060018154018082558091505060019003906000526020600020906004020160009091909190915060008201518160000160006101000a81548173ffffffffffffffffffffffffffffffffffffffff021916908373ffffffffffffffffffffffffffffffffffffffff160217905550602082015181600101908051906020019061019f929190610498565b5060408201518160020190805190602001906101bc929190610498565b506060820151816003015550503373ffffffffffffffffffffffffffffffffffffffff167f32baf6d7a0619c627b9933a4db4bdd381d00d7e96d25220c8ed19406a90b1cb583834260405161021393929190610a28565b60405180910390a25050565b60008054906101000a900473ffffffffffffffffffffffffffffffffffffffff1673ffffffffffffffffffffffffffffffffffffffff166108fc479081150290604051600060405180830381858888f193505050506102b3576040517f08c379a00000000000000000000000000000000000000000000000000000000081526004016102aa90610ab9565b60405180910390fd5b565b60606001805480602002602001604051908101604052809291908181526020016000905b8282101561048f57838290600052602060002090600402016040518060800160405290816000820160009054906101000a900473ffffffffffffffffffffffffffffffffffffffff1673ffffffffffffffffffffffffffffffffffffffff1673ffffffffffffffffffffffffffffffffffffffff16815260200160018201805461036290610b08565b80601f016020809104026020016040519081016040528092919081815260200182805461038e90610b08565b80156103db5780601f106103b0576101008083540402835291602001916103db565b820191906000526020600020905b8154815290600101906020018083116103be57829003601f168201915b505050505081526020016002820180546103f490610b08565b80601f016020809104026020016040519081016040528092919081815260200182805461042090610b08565b801561046d5780601f106104425761010080835404028352916020019161046d565b820191906000526020600020905b81548152906001019060200180831161045057829003601f168201915b50505050508152602001600382015481525050815260200190600101906102d9565b50505050905090565b8280546104a490610b08565b90600052602060002090601f0160209004810192826104c6576000855561050d565b82601f106104df57805160ff191683800117855561050d565b8280016001018555821561050d579182015b8281111561050c5782518255916020019190600101906104f1565b5b50905061051a919061051e565b5090565b5b8082111561053757600081600090555060010161051f565b5090565b6000604051905090565b600080fd5b600080fd5b600080fd5b600080fd5b6000601f19601f8301169050919050565b7f4e487b7100000000000000000000000000000000000000000000000000000000600052604160045260246000fd5b6105a282610559565b810181811067ffffffffffffffff821117156105c1576105c061056a565b5b80604052505050565b60006105d461053b565b90506105e08282610599565b919050565b600067ffffffffffffffff821115610600576105ff61056a565b5b61060982610559565b9050602081019050919050565b82818337600083830152505050565b6000610638610633846105e5565b6105ca565b90508281526020810184848401111561065457610653610554565b5b61065f848285610616565b509392505050565b600082601f83011261067c5761067b61054f565b5b813561068c848260208601610625565b91505092915050565b600080604083850312156106ac576106ab610545565b5b600083013567ffffffffffffffff8111156106ca576106c961054a565b5b6106d685828601610667565b925050602083013567ffffffffffffffff8111156106f7576106f661054a565b5b61070385828601610667565b9150509250929050565b600081519050919050565b600082825260208201905092915050565b6000819050602082019050919050565b600073ffffffffffffffffffffffffffffffffffffffff82169050919050565b600061076482610739565b9050919050565b61077481610759565b82525050565b600081519050919050565b600082825260208201905092915050565b60005b838110156107b4578082015181840152602081019050610799565b838111156107c3576000848401525b50505050565b60006107d48261077a565b6107de8185610785565b93506107ee818560208601610796565b6107f781610559565b840191505092915050565b6000819050919050565b61081581610802565b82525050565b6000608083016000830151610833600086018261076b565b506020830151848203602086015261084b82826107c9565b9150506040830151848203604086015261086582826107c9565b915050606083015161087a606086018261080c565b508091505092915050565b6000610891838361081b565b905092915050565b6000602082019050919050565b60006108b18261070d565b6108bb8185610718565b9350836020820285016108cd85610729565b8060005b8581101561090957848403895281516108ea8582610885565b94506108f583610899565b925060208a019950506001810190506108d1565b50829750879550505050505092915050565b6000602082019050818103600083015261093581846108a6565b905092915050565b600082825260208201905092915050565b7f556e61626c6520746f20646f6e61746520776974686f757420636f696e732e2e60008201527f2e00000000000000000000000000000000000000000000000000000000000000602082015250565b60006109aa60218361093d565b91506109b58261094e565b604082019050919050565b600060208201905081810360008301526109d98161099d565b9050919050565b60006109eb8261077a565b6109f5818561093d565b9350610a05818560208601610796565b610a0e81610559565b840191505092915050565b610a2281610802565b82525050565b60006060820190508181036000830152610a4281866109e0565b90508181036020830152610a5681856109e0565b9050610a656040830184610a19565b949350505050565b7f756e61626c6520746f2077697468647261770000000000000000000000000000600082015250565b6000610aa360128361093d565b9150610aae82610a6d565b602082019050919050565b60006020820190508181036000830152610ad281610a96565b9050919050565b7f4e487b7100000000000000000000000000000000000000000000000000000000600052602260045260246000fd5b60006002820490506001821680610b2057607f821691505b60208210811415610b3457610b33610ad9565b5b5091905056fea2646970667358221220b9eae2b27a4970ad0dddfea2b4dc63951bb89664cb3dc485d0f380ccba83f9c464736f6c63430008090033",
  "linkReferences": {},
  "deployedLinkReferences": {}
}